:020000040000FA
:100000000000000074EF00F0800E016EFE0E52D86A
:10001000010E50D8750E036E300E5CD0076E8A94B8
:100020008A96939493960F0E9316075000B21ED0A3
:100030003A0E036E980E4ED8330E066E28D8130E65
:10004000036E880E47D823D8640E43D820D8640E98
:1000500040D8220E066E1BD8280E07D80C0E05D8E5
:10006000060E03D80082075001D00080066E00A063
:1000700009D08A9603080AE309D8070E036ED00E4A
:1000800029D812000080FE0813E08A8600A00090A4
:100090008A840F0E81160650F00B8112000000D0EA
:1000A0008A94063A000000D000B0F1D7320E11D881
:1000B0000750120001BEB2D7056A046EFF0E042677
:1000C000052200D0D8A01200030E036EE60E02D85F
:1000D000F5D7036AFD0F026E01D00206000000D0C2
:1000E000E86A035AFAE21200006A00010F0EC16EBC
:1000F000070EB46ED38CD38AD3889B8C0F0EC16E3F
:10010000926AC70E936E180E946E720ED36E2DD82F
:1001100086D8010E096E0A6A63D8480E086E55D853
:10012000650E086E52D86C0E086E4FD86C0E086EB5
:100130004CD86F0E086E49D8200E086E46D8570E60
:10014000086E43D86F0E086E40D8720E086E3DD808
:100150006C0E086E3AD8640E086E37D8030E056E22
:10016000E80EABDFFBD7FFD7FFD7929C899C929A12
:10017000899A929E899E9290899092928992929465
:10018000899492968996320E97DF030E0C6E4AD8A8
:10019000050E92DF030E0C6E45D8050E8DDF030EA3
:1001A0000C6E40D8050E88DF020E0C6E3BD8280E70
:1001B0000D6E53D80C0E0D6E50D8060E0D6E4DD828
:1001C000010E0D6E4AD8020E77D7929C898C0838A2
:1001D0000F0B0C6E27D808C00CF024D8320E79D73C
:1001E000092C04D0800E0A240B6E16D0020E096270
:1001F00004D0C00E0A240B6E0FD0030E096204D087
:10020000940E0A240B6E08D0040E096205D0D40E99
:100210000A240B6E800E0B6E0BC00DF01ED0F4DEA8
:10022000020E4AD70CB080800CA080900CB2808265
:100230000CA280920CB480840CA480940CB68086AE
:100240000CA68096929E898E020EE82EFED70000A4
:100250000000929E899E320E3CD7929C899C0D385C
:100260000F0B0C6EDFDF0DC00CF0DCDF320E31D770
:020000040030CA
:03000100081F1EB7
:020005008181F7
:060008000FC00FE00F40E5
:00000001FF
